{
  "_format": "hh-sol-artifact-1",
  "contractName": "LandRegistry",
  "sourceName": "contracts/LandRegistry.sol",
  "abi": [
    {
      "inputs": [],
      "stateMutability": "nonpayable",
      "type": "constructor"
    },
    {
      "anonymous": false,
      "inputs": [
        {
          "indexed": false,
          "internalType": "uint256",
          "name": "landId",
          "type": "uint256"
        },
        {
          "indexed": true,
          "internalType": "address",
          "name": "owner",
          "type": "address"
        }
      ],
      "name": "LandRegistered",
      "type": "event"
    },
    {
      "anonymous": false,
      "inputs": [
        {
          "indexed": false,
          "internalType": "uint256",
          "name": "landId",
          "type": "uint256"
        }
      ],
      "name": "LandRejected",
      "type": "event"
    },
    {
      "anonymous": false,
      "inputs": [
        {
          "indexed": false,
          "internalType": "uint256",
          "name": "landId",
          "type": "uint256"
        },
        {
          "indexed": true,
          "internalType": "address",
          "name": "from",
          "type": "address"
        },
        {
          "indexed": true,
          "internalType": "address",
          "name": "to",
          "type": "address"
        }
      ],
      "name": "LandTransferred",
      "type": "event"
    },
    {
      "anonymous": false,
      "inputs": [
        {
          "indexed": false,
          "internalType": "uint256",
          "name": "landId",
          "type": "uint256"
        }
      ],
      "name": "LandVerified",
      "type": "event"
    },
    {
      "inputs": [],
      "name": "admin",
      "outputs": [
        {
          "internalType": "address",
          "name": "",
          "type": "address"
        }
      ],
      "stateMutability": "view",
      "type": "function"
    },
    {
      "inputs": [],
      "name": "getAdmin",
      "outputs": [
        {
          "internalType": "address",
          "name": "",
          "type": "address"
        }
      ],
      "stateMutability": "view",
      "type": "function"
    },
    {
      "inputs": [],
      "name": "getAllLands",
      "outputs": [
        {
          "components": [
            {
              "internalType": "uint256",
              "name": "landId",
              "type": "uint256"
            },
            {
              "internalType": "string",
              "name": "location",
              "type": "string"
            },
            {
              "internalType": "uint256",
              "name": "area",
              "type": "uint256"
            },
            {
              "internalType": "address",
              "name": "owner",
              "type": "address"
            },
            {
              "internalType": "enum LandRegistry.LandStatus",
              "name": "status",
              "type": "uint8"
            }
          ],
          "internalType": "struct LandRegistry.Land[]",
          "name": "",
          "type": "tuple[]"
        }
      ],
      "stateMutability": "view",
      "type": "function"
    },
    {
      "inputs": [
        {
          "internalType": "uint256",
          "name": "_landId",
          "type": "uint256"
        }
      ],
      "name": "getLandDetails",
      "outputs": [
        {
          "internalType": "uint256",
          "name": "",
          "type": "uint256"
        },
        {
          "internalType": "string",
          "name": "",
          "type": "string"
        },
        {
          "internalType": "uint256",
          "name": "",
          "type": "uint256"
        },
        {
          "internalType": "address",
          "name": "",
          "type": "address"
        },
        {
          "internalType": "enum LandRegistry.LandStatus",
          "name": "",
          "type": "uint8"
        }
      ],
      "stateMutability": "view",
      "type": "function"
    },
    {
      "inputs": [],
      "name": "getLandStats",
      "outputs": [
        {
          "internalType": "uint256",
          "name": "totalLands",
          "type": "uint256"
        },
        {
          "internalType": "uint256",
          "name": "verifiedLands",
          "type": "uint256"
        }
      ],
      "stateMutability": "view",
      "type": "function"
    },
    {
      "inputs": [
        {
          "internalType": "address",
          "name": "_owner",
          "type": "address"
        }
      ],
      "name": "getLandsByOwner",
      "outputs": [
        {
          "internalType": "uint256[]",
          "name": "",
          "type": "uint256[]"
        }
      ],
      "stateMutability": "view",
      "type": "function"
    },
    {
      "inputs": [],
      "name": "getMyLands",
      "outputs": [
        {
          "internalType": "uint256[]",
          "name": "",
          "type": "uint256[]"
        }
      ],
      "stateMutability": "view",
      "type": "function"
    },
    {
      "inputs": [
        {
          "internalType": "uint256",
          "name": "",
          "type": "uint256"
        }
      ],
      "name": "lands",
      "outputs": [
        {
          "internalType": "uint256",
          "name": "landId",
          "type": "uint256"
        },
        {
          "internalType": "string",
          "name": "location",
          "type": "string"
        },
        {
          "internalType": "uint256",
          "name": "area",
          "type": "uint256"
        },
        {
          "internalType": "address",
          "name": "owner",
          "type": "address"
        },
        {
          "internalType": "enum LandRegistry.LandStatus",
          "name": "status",
          "type": "uint8"
        }
      ],
      "stateMutability": "view",
      "type": "function"
    },
    {
      "inputs": [],
      "name": "nextLandId",
      "outputs": [
        {
          "internalType": "uint256",
          "name": "",
          "type": "uint256"
        }
      ],
      "stateMutability": "view",
      "type": "function"
    },
    {
      "inputs": [
        {
          "internalType": "address",
          "name": "",
          "type": "address"
        },
        {
          "internalType": "uint256",
          "name": "",
          "type": "uint256"
        }
      ],
      "name": "ownedLands",
      "outputs": [
        {
          "internalType": "uint256",
          "name": "",
          "type": "uint256"
        }
      ],
      "stateMutability": "view",
      "type": "function"
    },
    {
      "inputs": [
        {
          "internalType": "string",
          "name": "_location",
          "type": "string"
        },
        {
          "internalType": "uint256",
          "name": "_area",
          "type": "uint256"
        }
      ],
      "name": "registerLand",
      "outputs": [],
      "stateMutability": "nonpayable",
      "type": "function"
    },
    {
      "inputs": [
        {
          "internalType": "uint256",
          "name": "_landId",
          "type": "uint256"
        }
      ],
      "name": "rejectLand",
      "outputs": [],
      "stateMutability": "nonpayable",
      "type": "function"
    },
    {
      "inputs": [
        {
          "internalType": "uint256",
          "name": "_landId",
          "type": "uint256"
        },
        {
          "internalType": "address",
          "name": "_to",
          "type": "address"
        }
      ],
      "name": "transferLand",
      "outputs": [],
      "stateMutability": "nonpayable",
      "type": "function"
    },
    {
      "inputs": [
        {
          "internalType": "uint256",
          "name": "_landId",
          "type": "uint256"
        }
      ],
      "name": "verifyLand",
      "outputs": [],
      "stateMutability": "nonpayable",
      "type": "function"
    }
  ],
  "bytecode": "0x608060405234801561001057600080fd5b50336000806101000a81548173ffffffffffffffffffffffffffffffffffffffff021916908373ffffffffffffffffffffffffffffffffffffffff16021790555061200f806100606000396000f3fe608060405234801561001057600080fd5b50600436106100ea5760003560e01c8063b7b6e5431161008c578063e261f1e511610066578063e261f1e51461023a578063f851a4401461026e578063f9c43bdf1461028c578063fe0cb7dc146102a8576100ea565b8063b7b6e543146101e4578063c798ff7d14610202578063ce924ed91461021e576100ea565b80634c3231af116100c85780634c3231af1461015c5780636e9960c314610178578063ad9a3eb014610196578063b6f84991146101b4576100ea565b80630695b9c3146100ef57806331f84f331461010d578063455b9d231461012c575b600080fd5b6100f76102dc565b6040516101049190611305565b60405180910390f35b610115610371565b604051610123929190611336565b60405180910390f35b610146600480360381019061014191906113d1565b610401565b6040516101539190611305565b60405180910390f35b6101766004803603810190610171919061142a565b610498565b005b610180610628565b60405161018d9190611466565b60405180910390f35b61019e610651565b6040516101ab9190611481565b60405180910390f35b6101ce60048036038101906101c9919061149c565b610657565b6040516101db9190611481565b60405180910390f35b6101ec610688565b6040516101f9919061172a565b60405180910390f35b61021c6004803603810190610217919061174c565b61087f565b005b610238600480360381019061023391906118c1565b610bd9565b005b610254600480360381019061024f919061142a565b610db8565b604051610265959493929190611976565b60405180910390f35b610276610ea3565b6040516102839190611466565b60405180910390f35b6102a660048036038101906102a1919061142a565b610ec7565b005b6102c260048036038101906102bd919061142a565b611058565b6040516102d3959493929190611976565b60405180910390f35b6060600360003373ffffffffffffffffffffffffffffffffffffffff1673ffffffffffffffffffffffffffffffffffffffff16815260200190815260200160002080548060200260200160405190810160405280929190818152602001828054801561036757602002820191906000526020600020905b815481526020019060010190808311610353575b5050505050905090565b6000806000805b6001548110156103f35760016002811115610396576103956115a7565b5b6002600083815260200190815260200160002060030160149054906101000a900460ff1660028111156103cc576103cb6115a7565b5b036103e05781806103dc906119ff565b9250505b80806103eb906119ff565b915050610378565b506001548192509250509091565b6060600360008373ffffffffffffffffffffffffffffffffffffffff1673ffffffffffffffffffffffffffffffffffffffff16815260200190815260200160002080548060200260200160405190810160405280929190818152602001828054801561048c57602002820191906000526020600020905b815481526020019060010190808311610478575b50505050509050919050565b60008054906101000a900473ffffffffffffffffffffffffffffffffffffffff1673ffffffffffffffffffffffffffffffffffffffff163373ffffffffffffffffffffffffffffffffffffffff1614610526576040517f08c379a000000000000000000000000000000000000000000000000000000000815260040161051d90611ab9565b60405180910390fd5b6000600281111561053a576105396115a7565b5b6002600083815260200190815260200160002060030160149054906101000a900460ff1660028111156105705761056f6115a7565b5b146105b0576040517f08c379a00000000000000000000000000000000000000000000000000000000081526004016105a790611b25565b60405180910390fd5b600280600083815260200190815260200160002060030160146101000a81548160ff021916908360028111156105e9576105e86115a7565b5b02179055507fad423fb43b7443196fd254deba8687812bcdc897e7490d594b86c44891a612b18160405161061d9190611481565b60405180910390a150565b60008060009054906101000a900473ffffffffffffffffffffffffffffffffffffffff16905090565b60015481565b6003602052816000526040600020818154811061067357600080fd5b90600052602060002001600091509150505481565b6060600060015467ffffffffffffffff8111156106a8576106a7611796565b5b6040519080825280602002602001820160405280156106e157816020015b6106ce6111e6565b8152602001906001900390816106c65790505b50905060005b60015481101561087757600260008281526020019081526020016000206040518060a00160405290816000820154815260200160018201805461072990611b74565b80601f016020809104026020016040519081016040528092919081815260200182805461075590611b74565b80156107a25780601f10610777576101008083540402835291602001916107a2565b820191906000526020600020905b81548152906001019060200180831161078557829003601f168201915b50505050508152602001600282015481526020016003820160009054906101000a900473ffffffffffffffffffffffffffffffffffffffff1673ffffffffffffffffffffffffffffffffffffffff1673ffffffffffffffffffffffffffffffffffffffff1681526020016003820160149054906101000a900460ff1660028111156108305761082f6115a7565b5b6002811115610842576108416115a7565b5b8152505082828151811061085957610858611ba5565b5b6020026020010181905250808061086f906119ff565b9150506106e7565b508091505090565b813373ffffffffffffffffffffffffffffffffffffffff166002600083815260200190815260200160002060030160009054906101000a900473ffffffffffffffffffffffffffffffffffffffff1673ffffffffffffffffffffffffffffffffffffffff1614610924576040517f08c379a000000000000000000000000000000000000000000000000000000000815260040161091b90611c46565b60405180910390fd5b60016002811115610938576109376115a7565b5b6002600085815260200190815260200160002060030160149054906101000a900460ff16600281111561096e5761096d6115a7565b5b146109ae576040517f08c379a00000000000000000000000000000000000000000000000000000000081526004016109a590611cd8565b60405180910390fd5b6000600360003373ffffffffffffffffffffffffffffffffffffffff1673ffffffffffffffffffffffffffffffffffffffff168152602001908152602001600020905060005b8180549050811015610ab25784828281548110610a1457610a13611ba5565b5b906000526020600020015403610a9f578160018380549050610a369190611cf8565b81548110610a4757610a46611ba5565b5b9060005260206000200154828281548110610a6557610a64611ba5565b5b906000526020600020018190555081805480610a8457610a83611d2c565b5b60019003818190600052602060002001600090559055610ab2565b8080610aaa906119ff565b9150506109f4565b50826002600086815260200190815260200160002060030160006101000a81548173ffffffffffffffffffffffffffffffffffffffff021916908373ffffffffffffffffffffffffffffffffffffffff160217905550600360008473ffffffffffffffffffffffffffffffffffffffff1673ffffffffffffffffffffffffffffffffffffffff1681526020019081526020016000208490806001815401808255809150506001900390600052602060002001600090919091909150558273ffffffffffffffffffffffffffffffffffffffff163373ffffffffffffffffffffffffffffffffffffffff167f1080b2f211753e5090f26ef7ffdc6bb3e66a125c7290200d10b502160bb1f56686604051610bcb9190611481565b60405180910390a350505050565b6040518060a0016040528060015481526020018381526020018281526020013373ffffffffffffffffffffffffffffffffffffffff16815260200160006002811115610c2857610c276115a7565b5b815250600260006001548152602001908152602001600020600082015181600001556020820151816001019081610c5f9190611f07565b506040820151816002015560608201518160030160006101000a81548173ffffffffffffffffffffffffffffffffffffffff021916908373ffffffffffffffffffffffffffffffffffffffff16021790555060808201518160030160146101000a81548160ff02191690836002811115610cdc57610cdb6115a7565b5b0217905550905050600360003373ffffffffffffffffffffffffffffffffffffffff1673ffffffffffffffffffffffffffffffffffffffff16815260200190815260200160002060015490806001815401808255809150506001900390600052602060002001600090919091909150553373ffffffffffffffffffffffffffffffffffffffff167fcb4990052f95f6057496d19524f6c3163f50af9f33f2c15b092928e03414323e600154604051610d949190611481565b60405180910390a260016000815480929190610daf906119ff565b91905055505050565b6002602052806000526040600020600091509050806000015490806001018054610de190611b74565b80601f0160208091040260200160405190810160405280929190818152602001828054610e0d90611b74565b8015610e5a5780601f10610e2f57610100808354040283529160200191610e5a565b820191906000526020600020905b815481529060010190602001808311610e3d57829003601f168201915b5050505050908060020154908060030160009054906101000a900473ffffffffffffffffffffffffffffffffffffffff16908060030160149054906101000a900460ff16905085565b60008054906101000a900473ffffffffffffffffffffffffffffffffffffffff1681565b60008054906101000a900473ffffffffffffffffffffffffffffffffffffffff1673ffffffffffffffffffffffffffffffffffffffff163373ffffffffffffffffffffffffffffffffffffffff1614610f55576040517f08c379a0000000000000000000000000000000000000000000000000000000008152600401610f4c90611ab9565b60405180910390fd5b60006002811115610f6957610f686115a7565b5b6002600083815260200190815260200160002060030160149054906101000a900460ff166002811115610f9f57610f9e6115a7565b5b14610fdf576040517f08c379a0000000000000000000000000000000000000000000000000000000008152600401610fd690611b25565b60405180910390fd5b60016002600083815260200190815260200160002060030160146101000a81548160ff02191690836002811115611019576110186115a7565b5b02179055507f339a5d26292b459dbd1a911e53069f56bd3610e5ca60a312043fc90189c388bf8160405161104d9190611481565b60405180910390a150565b60006060600080600080600260008881526020019081526020016000206040518060a00160405290816000820154815260200160018201805461109a90611b74565b80601f01602080910402602001604051908101604052809291908181526020018280546110c690611b74565b80156111135780601f106110e857610100808354040283529160200191611113565b820191906000526020600020905b8154815290600101906020018083116110f657829003601f168201915b50505050508152602001600282015481526020016003820160009054906101000a900473ffffffffffffffffffffffffffffffffffffffff1673ffffffffffffffffffffffffffffffffffffffff1673ffffffffffffffffffffffffffffffffffffffff1681526020016003820160149054906101000a900460ff1660028111156111a1576111a06115a7565b5b60028111156111b3576111b26115a7565b5b81525050905080600001518160200151826040015183606001518460800151955095509550955095505091939590929450565b6040518060a00160405280600081526020016060815260200160008152602001600073ffffffffffffffffffffffffffffffffffffffff16815260200160006002811115611237576112366115a7565b5b81525090565b600081519050919050565b600082825260208201905092915050565b6000819050602082019050919050565b6000819050919050565b61127c81611269565b82525050565b600061128e8383611273565b60208301905092915050565b6000602082019050919050565b60006112b28261123d565b6112bc8185611248565b93506112c783611259565b8060005b838110156112f85781516112df8882611282565b97506112ea8361129a565b9250506001810190506112cb565b5085935050505092915050565b6000602082019050818103600083015261131f81846112a7565b905092915050565b61133081611269565b82525050565b600060408201905061134b6000830185611327565b6113586020830184611327565b9392505050565b6000604051905090565b600080fd5b600080fd5b600073ffffffffffffffffffffffffffffffffffffffff82169050919050565b600061139e82611373565b9050919050565b6113ae81611393565b81146113b957600080fd5b50565b6000813590506113cb816113a5565b92915050565b6000602082840312156113e7576113e6611369565b5b60006113f5848285016113bc565b91505092915050565b61140781611269565b811461141257600080fd5b50565b600081359050611424816113fe565b92915050565b6000602082840312156114405761143f611369565b5b600061144e84828501611415565b91505092915050565b61146081611393565b82525050565b600060208201905061147b6000830184611457565b92915050565b60006020820190506114966000830184611327565b92915050565b600080604083850312156114b3576114b2611369565b5b60006114c1858286016113bc565b92505060206114d285828601611415565b9150509250929050565b600081519050919050565b600082825260208201905092915050565b6000819050602082019050919050565b600081519050919050565b600082825260208201905092915050565b60005b83811015611542578082015181840152602081019050611527565b60008484015250505050565b6000601f19601f8301169050919050565b600061156a82611508565b6115748185611513565b9350611584818560208601611524565b61158d8161154e565b840191505092915050565b6115a181611393565b82525050565b7f4e487b7100000000000000000000000000000000000000000000000000000000600052602160045260246000fd5b600381106115e7576115e66115a7565b5b50565b60008190506115f8826115d6565b919050565b6000611608826115ea565b9050919050565b611618816115fd565b82525050565b600060a0830160008301516116366000860182611273565b506020830151848203602086015261164e828261155f565b91505060408301516116636040860182611273565b5060608301516116766060860182611598565b506080830151611689608086018261160f565b508091505092915050565b60006116a0838361161e565b905092915050565b6000602082019050919050565b60006116c0826114dc565b6116ca81856114e7565b9350836020820285016116dc856114f8565b8060005b8581101561171857848403895281516116f98582611694565b9450611704836116a8565b925060208a019950506001810190506116e0565b50829750879550505050505092915050565b6000602082019050818103600083015261174481846116b5565b905092915050565b6000806040838503121561176357611762611369565b5b600061177185828601611415565b9250506020611782858286016113bc565b9150509250929050565b600080fd5b600080fd5b7f4e487b7100000000000000000000000000000000000000000000000000000000600052604160045260246000fd5b6117ce8261154e565b810181811067ffffffffffffffff821117156117ed576117ec611796565b5b80604052505050565b600061180061135f565b905061180c82826117c5565b919050565b600067ffffffffffffffff82111561182c5761182b611796565b5b6118358261154e565b9050602081019050919050565b82818337600083830152505050565b600061186461185f84611811565b6117f6565b9050828152602081018484840111156118805761187f611791565b5b61188b848285611842565b509392505050565b600082601f8301126118a8576118a761178c565b5b81356118b8848260208601611851565b91505092915050565b600080604083850312156118d8576118d7611369565b5b600083013567ffffffffffffffff8111156118f6576118f561136e565b5b61190285828601611893565b925050602061191385828601611415565b9150509250929050565b600082825260208201905092915050565b600061193982611508565b611943818561191d565b9350611953818560208601611524565b61195c8161154e565b840191505092915050565b611970816115fd565b82525050565b600060a08201905061198b6000830188611327565b818103602083015261199d818761192e565b90506119ac6040830186611327565b6119b96060830185611457565b6119c66080830184611967565b9695505050505050565b7f4e487b7100000000000000000000000000000000000000000000000000000000600052601160045260246000fd5b6000611a0a82611269565b91507fffffffffffffffffffffffffffffffffffffffffffffffffffffffffffffffff8203611a3c57611a3b6119d0565b5b600182019050919050565b7f4f6e6c792061646d696e2063616e20706572666f726d2074686973206163746960008201527f6f6e000000000000000000000000000000000000000000000000000000000000602082015250565b6000611aa360228361191d565b9150611aae82611a47565b604082019050919050565b60006020820190508181036000830152611ad281611a96565b9050919050565b7f4c616e64206d7573742062652072656769737465726564206669727374000000600082015250565b6000611b0f601d8361191d565b9150611b1a82611ad9565b602082019050919050565b60006020820190508181036000830152611b3e81611b02565b9050919050565b7f4e487b7100000000000000000000000000000000000000000000000000000000600052602260045260246000fd5b60006002820490506001821680611b8c57607f821691505b602082108103611b9f57611b9e611b45565b5b50919050565b7f4e487b7100000000000000000000000000000000000000000000000000000000600052603260045260246000fd5b7f4f6e6c79206c616e64206f776e65722063616e20706572666f726d207468697360008201527f20616374696f6e00000000000000000000000000000000000000000000000000602082015250565b6000611c3060278361191d565b9150611c3b82611bd4565b604082019050919050565b60006020820190508181036000830152611c5f81611c23565b9050919050565b7f4f6e6c79207665726966696564206c616e64732063616e206265207472616e7360008201527f6665727265640000000000000000000000000000000000000000000000000000602082015250565b6000611cc260268361191d565b9150611ccd82611c66565b604082019050919050565b60006020820190508181036000830152611cf181611cb5565b9050919050565b6000611d0382611269565b9150611d0e83611269565b9250828203905081811115611d2657611d256119d0565b5b92915050565b7f4e487b7100000000000000000000000000000000000000000000000000000000600052603160045260246000fd5b60008190508160005260206000209050919050565b60006020601f8301049050919050565b600082821b905092915050565b600060088302611dbd7fffffffffffffffffffffffffffffffffffffffffffffffffffffffffffffffff82611d80565b611dc78683611d80565b95508019841693508086168417925050509392505050565b6000819050919050565b6000611e04611dff611dfa84611269565b611ddf565b611269565b9050919050565b6000819050919050565b611e1e83611de9565b611e32611e2a82611e0b565b848454611d8d565b825550505050565b600090565b611e47611e3a565b611e52818484611e15565b505050565b5b81811015611e7657611e6b600082611e3f565b600181019050611e58565b5050565b601f821115611ebb57611e8c81611d5b565b611e9584611d70565b81016020851015611ea4578190505b611eb8611eb085611d70565b830182611e57565b50505b505050565b600082821c905092915050565b6000611ede60001984600802611ec0565b1980831691505092915050565b6000611ef78383611ecd565b9150826002028217905092915050565b611f1082611508565b67ffffffffffffffff811115611f2957611f28611796565b5b611f338254611b74565b611f3e828285611e7a565b600060209050601f831160018114611f715760008415611f5f578287015190505b611f698582611eeb565b865550611fd1565b601f198416611f7f86611d5b565b60005b82811015611fa757848901518255600182019150602085019450602081019050611f82565b86831015611fc45784890151611fc0601f891682611ecd565b8355505b6001600288020188555050505b50505050505056fea26469706673582212202eab8aa7fb6d965e061bea7940494760b43b4ae41986af2bd1bc86afa37b560264736f6c63430008140033",
  "linkReferences": {},
  "deployedLinkReferences": {}
}